:020000040000FA
:100000002037002019020000210200002302000016
:100010002502000027020000290200000000000065
:100020000000000000000000000000002B020000A3
:100030002D020000000000002F020000310200002D
:1000400033020000A9020000550600003302000040
:1000500033020000330200003302000033020000CC
:1000600033020000330200003302000033020000BC
:1000700033020000330200003302000033020000AC
:10008000330200003302000033020000330200009C
:10009000210300003302000033020000330200009D
:1000A00033020000330200002D060000330200007E
:1000B00033020000330200000000000000000000D6
:1000C000330200003302000033020000330200005C
:1000D0003302000033020000330200000000000081
:1000E0000000000000000000000000000000000010
:1000F0000000000000000000000000000000000000
:1001000000000000000000000000000000000000EF
:1001100000000000000000000000000000000000DF
:1001200000000000000000000000000000000000CF
:1001300000000000000000000000000000000000BF
:1001400000000000000000000000000000000000AF
:10015000000000000000000000000000000000009F
:10016000000000000000000000000000000000008F
:10017000000000000000000000000000000000007F
:10018000000000000000000000000000000000006F
:10019000000000000000000000000000000000005F
:1001A000000000000000000000000000000000004F
:1001B000000000000000000000000000000000003F
:1001C000000000000000000000000000000000002F
:1001D000000000000000000000000000000000001F
:1001E000000000000000000000000000000000000F
:1001F00000000000000000000000000000000000FF
:10020000DFF810D000F03EF80048004799110000D8
:10021000AFF300802037002006488047064800479B
:10022000FEE7FEE7FEE7FEE7FEE7FEE7FEE7FEE7A6
:10023000FEE7FEE7950300000102000040EA01032B
:100240009B0703D009E008C9121F08C0042AFAD28C
:1002500003E011F8013B00F8013B521EF9D2704750
:10026000D2B201E000F8012B491EFBD270470022F8
:10027000F6E710B513460A4604461946FFF7F0FFA5
:10028000204610BD064C074D06E0E06840F0010333
:1002900094E8070098471034AC42F6D3FFF7B4FF58
:1002A000383600005836000010B51948006838B1DB
:1002B0001848006800F0010010B1002014490860DF
:1002C00013480C30006870B11248006800F0080054
:1002D00048B100200E490C3108600F48006810B189
:1002E0000D48006880470A481030006870B109481E
:1002F000006800F0100048B1002005491031086086
:100300000648006810B105480068804710BD00002D
:1003100000110040041300408400002080000020F1
:100320003EB516480068019002A801F04DFA044657
:100330001CBB1348006800B3029800F0010030B104
:1003400000208DF8000068460D490968884702982A
:1003500000F0020030B101208DF800006846084925
:1003600009688847029800F0040030B102208DF837
:10037000000068460249096888473EBD74000020B5
:100380004C00002001480249086070470090D003EB
:100390008C00002010B500F089FF28B19248008839
:1003A000C0F304209149086000F0DCFF10B19048D0
:1003B0009049486701F016F830B18B48E038006882
:1003C000C0F342308C49086001F03AF828B18B48FC
:1003D000006820F080708949086001F051F848B148
:1003E0000020874908604FF08041C1F81001824920
:1003F000091F086001F072F818B103207E496431CA
:10040000086001F08BF868B105207E490860012082
:100410007C497831086000207A49083108603F2023
:10042000091F086001F09AF8002855D06E48E030A6
:100430000068754908606C48E4300068091D086070
:100440006948E8300068091D08606748EC300068BA
:10045000091D08606448F0300068091D08606248A2
:10046000F4300068091D08605F48F830006866498C
:10047000203108605C48FC300068091D0860634852
:100480000068091D08606148001D0068091D0860BA
:100490005E4808300068091D08605C480C30006840
:1004A000091D0860594810300068574940310860FC
:1004B000564814300068091D086054481830006818
:1004C000091D086051481C300068091D08604F482C
:1004D00020300068091D086000F0BAFE30B14248C3
:1004E000CC38006800F04F004949086000F00CFF6C
:1004F00040B14848006800F0010018B16FF00100F9
:100500004449086000F04EFF28B14348006840F4B9
:1005100080604149086039487438006840F47000D0
:1005200036497439086000BF00BF00BFBFF34F8F6A
:1005300000BF00BF00BF00BF00BF00BFBFF36F8F91
:1005400000BF00BF00BF3548006800F0004028B978
:100550003248001D006800F00040E8B30120304937
:10056000086000BF2F4800680028FBD015202B49E9
:10057000086000BF2B4800680028FBD015212748E1
:10058000001D016000BF274800680028FBD0002044
:100590002349086000BF234800680028FBD000BF43
:1005A00000BF00BF00BF00BFBFF34F8F00BF00BF41
:1005B00000BF1248F038006800F4E0601A490843B0
:1005C000001D0E49F039086000BF00BF00BFBFF337
:1005D0004F8F00BF00BF00E003E000BF00BF00BFBF
:1005E000FDE7FFF7CFFE10BD2403001040350140AA
:1005F0000DF0ADBA00C007403C050040FCED00E046
:100600000C0100401056004020C50040240400109A
:10061000E40E0040000400403C17004000120010AF
:1006200004E5014000E401400000FA0506480068C6
:1006300048B100200449086004480078032802D12A
:10064000012003490861704740A101404500002096
:100650000010004010B502490868804710BD000036
:10066000140000200FB4054B10B503A9044A0298EA
:1006700000F077F810BC5DF814FB0000AD0F00002F
:100680003C000020002807DB00F01F020121914000
:10069000024A430942F823107047000080E200E05C
:1006A000002817DB00F01F02012191400A4A43098C
:1006B00042F8231000BF00BF00BFBFF34F8F00BF41
:1006C00000BF00BF00BF00BF00BFBFF36F8F00BF00
:1006D00000BF00BF7047000080E100E000280DDB94
:1006E00000BF00BF00F01F020121914042099200AB
:1006F00002F1E022C2F8001100BF00BF7047000005
:10070000002807DB00F01F0201219140024A430943
:1007100042F823107047000000E200E010B5002806
:1007200004DB4A07130E054A135406E04A07140E69
:10073000034A00F00F031B1FD45410BD00E400E077
:1007400018ED00E002E008C8121F08C1002AFAD123
:1007500070477047002001E001C1121F002AFBD141
:1007600070472DE9F84F994692468846054600277E
:1007700006E025280AD051464A4690476D1C7F1C4A
:1007800028780028F5D13846BDE8F88F002315F801
:10079000011F18462E2915D115F8011F04232A29F7
:1007A0000DD06FF02F022978A1F13004092C09D85F
:1007B00000EB800002EB400008446D1CF3E758F8A2
:1007C000040B6D1C2A78002ADDD0632A07D0732A17
:1007D0000FD0104651464A4690477F1C2AE018F831
:1007E000042B8DF8002000218DF801106E460121A8
:1007F00003E058F8046B4FF0FF315A074FF0000444
:1008000001D409E0641C84420BDA8C42FADB325DCD
:10081000002AF7D105E0641C8C42FCDB305D002827
:10082000F9D1274404E016F8010B51464A46904797
:10083000641EF8D26D1CA3E710B50446204600F0F4
:10084000C9FA00BA10BD000072B600BF13480068B4
:1008500000F0010000B100BE00BF00BF00BF00BF3C
:1008600000BF00BFBFF34F8F00BF00BF00BF0B48EA
:10087000E438006800F4E06009490843001D0749B6
:10088000E439086000BF00BF00BFBFF34F8F00BF57
:1008900000BF00BF00BF00BFFDE70000F0ED00E0BB
:1008A0000000FA053EB50446002000900190029039
:1008B00002946A46002144F20100FFF7C5FF3EBDE5
:1008C00070B504460D46204600F043FB28B129468A
:1008D000204600F02DFB002070BD0520FCE70346FC
:1008E00009B90E20704712B1501E104008B10920FE
:1008F000F8E71960501E988000209860D86000BF0B
:10090000F0E770B504460D46204600F022FBA188B2
:10091000884205D82946204600F029FB002070BDFA
:100920000420FCE72DE9F04104460F4807782146F2
:100930000E48FFF7C5FF804697B100200A490870AE
:1009400001220B490B4800F07DFE054600BF2E46F4
:1009500026B100BF3046FFF7A5FF00BF00BF00BFB4
:100960004046BDE8F08100003A000020E01300207E
:1009700039000020200000202DE9F04188B0044615
:100980000E46174698462B4807601EB9072008B048
:10099000BDE8F081B08882B227483168FFF79FFF39
:1009A000054600BF284600B1F1E700BFB08982B21A
:1009B0002248B168FFF793FF054600BF284600B103
:1009C000E5E700BF20221E496846FFF737FC606953
:1009D0000690207C08B1012000E000208DF8140072
:1009E0008DF81C80607C08B10E2000E000208DF89E
:1009F0001500E0680290A06803902068019060688C
:100A00000090104A6946104800F0D6FD054600BF28
:100A1000284600B1BBE700BF00200C4908702068E1
:100A2000401C28B101220A49074800F00BFEAEE73E
:100A30000020ACE734000020E0130020F013002079
:100A400018360000B92F0000200000203A000020D6
:100A5000390000202DE9F041054629461448FFF7EA
:100A600050FF064606BB134C002720781249085C4D
:100A700020B1201D01F0A4FD074608E020780E49B2
:100A8000085C20B904F10C0001F042FC074600BFED
:100A900057B90A490648FFF713FF28B90122074949
:100AA000044800F0F1FD06463046BDE8F081000044
:100AB000F01300202000002010000020380000204B
:100AC00000B5024600F006F800BD00B5024600F091
:100AD0000BF800BD72B603480068401C014908606D
:100AE000704700001C00002004480068401E0349B5
:100AF00008600846006800B962B670471C00002014
:100B00002DE9F04F4748006800F47F40B0F5844F6E
:100B10000DD14548006820F0010043490860434872
:100B2000006820F0010040F08070404908603D48B6
:100B3000006800F47F40B0F58A4F6FD13C48407C9C
:100B4000052801D13B4801E04FF07F4001463A487B
:100B5000006800EA01023848001D006800EA01034D
:100B60009A425AD1DFF8D0A00AF1080ADAF800A0B8
:100B70000AF0FF00DFF8C0A00AF1080ADAF800A0C6
:100B8000CAF30724DFF8B0A00AF1080ADAF800A0D7
:100B9000CAF30745DFF8A0A00AF1080ADAF800A0B6
:100BA0004FEA1A66DFF890A00AF10C0ADAF800A002
:100BB0000AF0FF07DFF880A00AF10C0ADAF800A0BB
:100BC000CAF3072CDFF870A00AF10C0ADAF800A0CB
:100BD000CAF30748DFF860A00AF10C0ADAF800A0AF
:100BE0004FEA1A69A0420BD0A84209D0B04207D000
:100BF000B84205D0604503D0404501D048450BD1EF
:100C0000DFF828A0DAF800A02AF0010A4AF0807A7A
:100C1000DFF818B0CBF800A000BF00BF0020BDE88F
:100C2000F08F0000040100105016004074170040BF
:100C3000500000200000FFFF1C15004070B5054665
:100C40000C462068401C28B1206801F067F9206834
:100C500001F04CF96068401C18B10021606801F097
:100C60002BF92868A169C0F8241500BF617D227D99
:100C7000286841EA0203C0F86C3500BFD4E90012CD
:100C8000286801F0A9F9207D012814D1A068401C32
:100C900018B10021A06801F00FF9E068401C28B1EC
:100CA000E06801F03BF9E06801F020F9D4E90221A5
:100CB000286801F07AF970BD70B505460C462068C9
:100CC000401C28B1206801F034F9206801F01AF9BD
:100CD0006068401C18B10021606801F0FAF82868CB
:100CE000A169C0F8241500BF617D227D286841EA12
:100CF0000203C0F86C3500BFD4E90012286801F087
:100D0000A3F9207D012814D1A068401C18B100214E
:100D1000A06801F0DEF8E068401C28B1E06801F04E
:100D200008F9E06801F0EEF8D4E90221286801F042
:100D30006CF970BD7CB500240DE00848055D032604
:100D4000002000903346024601460190284601F0FB
:100D50009FF800BF641C042CEFD37CBD1436000048
:100D600010B5044604F0010008B100F011F804F0D9
:100D7000020008B1FFF7DEFF10BD000010B5044609
:100D80000249085D012101F0DFF810BD10360000B6
:100D90007CB500240CE00948055D00200090034666
:100DA000012211460190284601F072F800BF641C30
:100DB000042CF0D300F004F87CBD000010360000D5
:100DC00010B5002403E02046FFF7D8FF641C042C74
:100DD000F9D310BD01460A6892FAA2F000BA704732
:100DE00010B513480068134908601349C87C1349BB
:100DF0000968884712481349086000201249C1F861
:100E000010010120086100BF0A48F038006800287E
:100E1000FAD000200749F03908600548006840F022
:100E200004000949C1F800020120486010BD00001B
:100E30007C000020001200400014002088000020E8
:100E40007E250020041500400010004000200549C8
:100E5000086001208107086000BF02480068002880
:100E6000FBD070470001004010B586B01822104931
:100E70006846FFF7E3F9FC208DF8130001208DF898
:100E800000004FF4FA70ADF80C0001208DF8080056
:100E90000848019001208DF8010000208DF8140011
:100EA000684600F0B1FC0446204606B010BD0000C4
:100EB000983500001D1700001FB519A000680390A9
:100EC00018A00068029018A103C9CDE9000103A889
:100ED00000F06CFD044600BF204608B104B010BD10
:100EE00000BF02A800F0A0FD044600BF204600B1EC
:100EF000F4E700BF0821684600F0F6FD044600BF95
:100F0000204600B1EAE700BF462000F04BFE044651
:100F100000BF204600B1E1E700BF2046DEE7000049
:100F2000E2E3E4E5C2C2C2C2E1C2C3C4C5C6C7C8E7
:100F300070B504460D462A460021204600F00EF802
:100F4000A068401CA06070BD01468A68C868801A0D
:100F5000704701468A68C868801A704710B5836870
:100F60000B44848823400468E35C137010BDC2689E
:100F700083881A4003689954C268521CC260704743
:100F800000210CE001EB4100074A02EB80000079F0
:100F900020B901EB410002EB80007047491C082991
:100FA000F0DB0020F9E700007C26002070B5044645
:100FB0000D46E0B2FFF74EFD204670BD10B501F0C2
:100FC000A7FD002007E000EB00211B4A11441B4A4B
:100FD00042F82010401C0828F5DB002007E000EB59
:100FE0000021174A1144174A42F82010401C0828D3
:100FF000F5DB002014E000EB00210F4A114400EB68
:101000004002114B43F82210002100EB400203EB99
:101010008202117100EB400203EB82029160401CDE
:101020000828E8DB002004E00021084A42F82010EC
:10103000401C0828F8DB10BD18140020201C0020DC
:101040004C1C0020542400207C260020DC2600209C
:101050002DE9F04104460E464FF48E71206800F0F1
:101060009DFF4FF4A271206800F098FF1A49206894
:1010700000F0A3FF206800F0EEFF05463746284643
:101080003946002804DB4A07130E144A135408E0BB
:101090004A074FEA126C124A00F00F031B1F02F8B6
:1010A00003C000BF00BF206800F0D5FF05462846FA
:1010B00000280DDB00BF00BF00F01F02012191409E
:1010C0004209920002F1E022C2F8001100BF00BF05
:1010D00000BF00BFBDE8F0818000020000E400E036
:1010E00018ED00E02DE9F04104460E464FF48871FA
:1010F000206800F083FF4FF49071206800F07EFFBD
:101100004FF49271206800F079FF4FF4A2712068CB
:1011100000F074FF4FF4AC71206800F06FFF1B49C2
:10112000206800F07BFF206800F099FF05463746F5
:1011300028463946002804DB4A07130E144A135484
:1011400008E04A074FEA126C124A00F00F031B1F17
:1011500002F803C000BF00BF206800F080FF054612
:10116000284600280DDB00BF00BF00F01F02012150
:1011700091404209920002F1E022C2F8001100BF42
:1011800000BF00BF00BFBDE8F081000010034200B7
:1011900000E400E018ED00E00120FFF7E1FDFFF7BB
:1011A00055FE01F0BBFEFFF75FFE044600BF25467B
:1011B00025B100BF2846FFF775FB00BF00BFFFF752
:1011C0007BFE00F02FFD044600BF254625B100BF81
:1011D0002846FFF767FB00BF00BF31E019480078E1
:1011E00001282DD1002511E01748415D17A0FFF718
:1011F00039FA54B1112C08D000BF264626B100BFE1
:101200003046FFF74FFB00BF00BF6D1C0E48401F6C
:101210000078A842E8D8112000BF4FF0A04319463B
:10122000D1F80425012383409343C1F808350123F5
:1012300083401340C1F80C3500BF002001490870FD
:10124000CCE700000000002095000020256300008E
:1012500014480068401C38B9134801781248083017
:101260000078C0F3031205E00E4801684FF080508B
:10127000D0F83421062912D1032A06D0042A06D038
:10128000052A06D0062A08D105E001207047012072
:10129000FCE70120FAE70120F8E70120F6E700204B
:1012A000F4E7000030010010E00F00F0144800687F
:1012B000401C38B913480178124808300078C0F350
:1012C000031205E00E4801684FF08050D0F8342139
:1012D000062912D1032A06D0042A06D0052A06D0F0
:1012E000062A08D105E0012070470120FCE7012013
:1012F000FAE70120F8E70120F6E70020F4E7000014
:1013000030010010E00F00F014480068401C38B9AC
:1013100013480178124808300078C0F3031205E042
:101320000E4801684FF08050D0F83421062912D1C0
:10133000032A06D0042A06D0052A06D0062A08D198
:1013400005E0012070470120FCE70120FAE70120B9
:10135000F8E70120F6E70020F4E700003001001074
:10136000E00F00F00E4802780D4808300078C0F316
:101370000311062A12D1032906D0042906D0052913
:1013800006D0062908D105E0012070470020FCE7BF
:101390000020FAE70020F8E70020F6E70020F4E755
:1013A000E00F00F00E4802684FF08050D0F8341182
:1013B000062A12D1032906D0042906D0052906D011
:1013C000062908D105E0002070470020FCE7002036
:1013D000FAE70120F8E70120F6E70020F4E7000033
:1013E0003001001014480068401C38B913480178D7
:1013F000124808300078C0F3031205E00E48016877
:101400004FF08050D0F83421062912D1032A06D09B
:10141000042A06D0052A06D0062A08D105E00120B4
:1014200070470120FCE70120FAE70120F8E70120DE
:10143000F6E70020F4E7000030010010E00F00F0B4
:101440000E4802780D4808300078C0F30311062AD0
:1014500012D1032906D0042906D0052906D0062971
:1014600008D105E0012070470020FCE70020FAE7E2
:101470000020F8E70020F6E70020F4E7E00F00F096
:1014800014480068401C38B91348017812480830E5
:101490000078C0F3031205E00E4801684FF0805059
:1014A000D0F83421062912D1032A06D0042A06D006
:1014B000052A06D0062A08D105E001207047012040
:1014C000FCE70120FAE70120F8E70120F6E7002019
:1014D000F4E7000030010010E00F00F00E48027841
:1014E0000D4808300078C0F30311062A12D10329F1
:1014F00006D0042906D0052906D0062908D105E022
:10150000012070470020FCE70020FAE70020F8E700
:101510000020F6E70020F4E7E00F00F00E48027824
:101520000D4808300078C0F30311062A12D10329B0
:1015300006D0042906D0052906D0062908D105E0E1
:10154000012070470020FCE70020FAE70020F8E7C0
:101550000020F6E70020F4E7E00F00F014480068F0
:10156000401C38B913480178124808300078C0F39D
:10157000031205E00E4801684FF08050D0F8342186
:10158000062912D1032A06D0042A06D0052A06D03D
:10159000062A08D105E0002070470020FCE7012062
:1015A000FAE70120F8E70120F6E70020F4E7000061
:1015B00030010010E00F00F02DE9F04188B0044642
:1015C0000F46154626781A4840F8265019493869BA
:1015D00041F82600787F1849885520223946684608
:1015E000FEF72CFE04964FF0000820781249085CA4
:1015F00050B10DB1114800E0002002466946201D9F
:1016000000F0A2FE80460EE020780B49085C50B93D
:101610000DB10B4800E000200246694604F10C00C1
:1016200000F05AFD8046404608B0BDE8F081000059
:10163000080000200C0000201000002025320000CF
:101640009D3000002DE9F04104460D461646002766
:1016500020780C49085C30B132462946201D00F044
:10166000B3FE07460AE020780649085C30B93246E6
:10167000294604F10C0000F073FD07463846BDE82A
:10168000F0810000100000202DE9F04104460D46D5
:101690001646002720780C49085C30B132462946AE
:1016A000201D00F02DFF07460AE020780649085C5F
:1016B00030B93246294604F10C0000F0E3FD07463C
:1016C0003846BDE8F08100001000002010B54FF44E
:1016D00070500C49086000200B4908700B490870D5
:1016E00001F016FA20210A48FEF7C1FD0948002141
:1016F000016041601420FEF7D3FF03200649086013
:10170000002010BD08F501404500002044000020E5
:10171000FC260020680000200012004010B504469E
:10172000207820B1012803D0022825D103E023E04E
:1017300000F030F820E006E010480078002802DDD4
:1017400001200F4908700D4800F0DAF80028F3D0A6
:101750000C48007801280ED10B4908700B4800781E
:10176000487100204870084600F0B0FA0849086047
:1017700000200449087000BF00BF10BD9000002089
:101780000000002002000020910100200100002044
:101790000400002010B500BF0948007808B90820EF
:1017A00010BD00BF0120FEF77BFF002005498862C5
:1017B000086248620120FEF791FF0020F0E7000078
:1017C00044000020201C002010B5044600BF0C4837
:1017D000007808B9082010BD00BF00BF0CB90E206A
:1017E000F9E700BF0120FEF75BFF064800682060B4
:1017F0000020044908600120FEF770FF0020EAE79E
:10180000440000206400002070B5044600BF0CB9FD
:101810000E2070BD00BF2E48007828B1FFF756FF9C
:1018200005460DB12846F4E72A4960680860182289
:1018300021462948FEF702FD0020284908602021A2
:101840002748FEF714FD274800210160416000BFD2
:1018500001F02CFE08B90720DBE700BF4FF0E730AE
:10186000214908604FF04330091D08601F48091DD9
:1018700008601F48091D0860FFF7A0FB01F0F0FA9F
:1018800001F012F91448407C00F007010120FEF736
:1018900045FF1148807C00F007011420FEF73EFF51
:1018A0001420FEF71BFF0020124908700120084990
:1018B00008701148006800F47F40B0F58A4F05D1E8
:1018C0000E48006840F480600C4908600020A0E7E2
:1018D000440000204C000020001400206400002080
:1018E000FC260020680000201C150040E743C323AD
:1018F000A363E31345000020040100103C170040DF
:1019000010B5044600BF2748007808B9082010BD6C
:1019100000BF00BF0CB90E20F9E700BF2248806A63
:1019200008B90520F3E70120FEF7BAFE1E48406A19
:101930001D4951F82000007820700846406A51F88F
:101940002000407860700846406A51F82000807896
:10195000A0700846406A51F82000007920710846BE
:10196000406A51F82000C078E07022780846406A4A
:101970000B4653F82000411D601DFEF75FFC0A482E
:10198000406A401C08494862082801D30020486288
:101990000548806A401E044988620120FEF79EFEC9
:1019A0000020B4E7440000205424002070B5044611
:1019B00000BF1848007808B1112070BD00BF00BFFB
:1019C0000CB90E20F9E700BF1348006800F47F400F
:1019D000B0F5844F14D11148407C052801D110483E
:1019E00001E04FF07F4005462046FEF725FF2840E6
:1019F00028B90C480068C0B208B90720DDE700BF6D
:101A0000064821680160012001F0C2FCFFF778F868
:101A1000D3E7000045000020040100105000002022
:101A20000000FFFF2415004070B5044600BF2948A0
:101A3000007808B1112070BD00BF00BF0CB90E20A6
:101A4000F9E700BF2448006800F47F40B0F5844FF8
:101A500036D12248407C052801D1214801E04FF0D1
:101A60007F4005462046FEF7E7FE284038BB1D486C
:101A7000006800F47F4000B31A48006800F47F005B
:101A8000D8B11848006800F07F40B0B11548001D7B
:101A9000006800F07F4080B11248001D006800F42B
:101AA0007F0050B10F48001D006800F47F4020B156
:101AB0000C48001D0068C0B208B90720BBE700BF92
:101AC000064821684160022001F062FCFFF718F827
:101AD000B1E7000045000020040100105000002084
:101AE0000000FFFF2415004070B505460C4600BFFE
:101AF0002748007808B1112070BD00BF00BF0DB9A4
:101B00000E20F9E700BF00BF082C01DD0720F3E736
:101B100000BF2048006800F47F40B0F5844F22D118
:101B20001D48407C052801D11C4801E04FF07F4052
:101B30000246012C07DB1A480068104018B92878C3
:101B400008B90720D8E71648001D0068104048B9BA
:101B5000012105E0685C08B90720CDE7481CC1B247
:101B6000A142F7DB00BF224629460B480830FEF7AA
:101B700065FB09480474C4F10801FF2008410649C7
:101B80008874042001F004FCFEF7BAFFB4E70000FB
:101B90004500002004010010500000200000FFFF5D
:101BA0001C150040014600BF0748007808B111200D
:101BB000704700BF00BF642901D90720F8E700BFC4
:101BC000024AD1740020F3E74500002050000020B5
:101BD00010B500BF1148007808B9082010BD00BF3B
:101BE00000BF0F48806A10B94FF48070F6E700BF5D
:101BF0000120FEF755FD0A48806A401E08498862A8
:101C00000846406A401C4862082801D30020486208
:101C10000120FEF763FD0020E0E700004400002003
:101C2000201C002010B500BF1E48007808B111200C
:101C300010BD00BF4FF0FF301B49086000201B495A
:101C4000C1F810011A481B4908601B48006840F0A1
:101C500004001A49086010201349091F0860042075
:101C6000104908701648807C164908601448C07CEA
:101C70001449283908601448091F08600120FEF73C
:101C800001FD0120FEF72AFD00200C49FC39086007
:101C9000091D08600949F0390860012003494860BE
:101CA0000020C5E745000020081300400010004058
:101CB000E1250000800000207C0000200012004090
:101CC00050000020301500407E25002070B50446ED
:101CD00000BF5548007808B9082070BD00BF00BF9C
:101CE0000CB90E20F9E700BF00BF207850B1207872
:101CF000FC2807DC4D48007830B920784B49C97C76
:101D0000884201DD0920E8E700BF00BF4848806A3B
:101D1000082801D30420E0E700BF00BF607808284E
:101D200001DB0720D9E700BF0120FEF7B9FC3F48DF
:101D3000407870BB3E49096A3D4A52F8210040F2A2
:101D400001122146FEF77AFA61783A4A515C481C42
:101D5000C11700EB91718910A0EB81016278354BBE
:101D6000995460781946085C3149096A304A52F83A
:101D7000211008711046006A401C114608620828AC
:101D800001D3002008622A48806A401C28498862E2
:101D90003AE0FFE7FFF7F4F8051E34D00120287180
:101DA0000020A86040F2011221462868FEF746FA9A
:101DB0006178204A515C481CC11700EB9171891071
:101DC000A0EB810162781B4B995460781946085C3E
:101DD000296808716078184951F8200018B96078AE
:101DE00041F820500AE06178134A52F8210000E0DF
:101DF000806881680029FBD1856000BF0C48806A3B
:101E0000401C0B49886200BF0120FEF767FC0748B1
:101E1000407838B90548007C20B90848007808B9EE
:101E200000F044FF002058E7440000200014002088
:101E3000201C002068000020DC2600204500002037
:101E4000F0B5DDE9054500BF4FF0A0473E4641EA49
:101E5000420747EA830747EA042747EA054C06F5A5
:101E6000E06747F820C0F0BDF0B5DDE9054500BFEB
:101E70004FF0A0473E4641EA420747EA830747EA58
:101E8000042747EA054C06F5E06747F820C0F0BD97
:101E9000F0B5DDE9054500BF4FF0A0473E4641EAF9
:101EA000420747EA830747EA042747EA054C06F555
:101EB000E06747F820C0F0BD7CB505460C46002021
:101EC000009023460246014601902846FFF7B8FFDE
:101ED0007CBD7CB505460C4600200090234602469A
:101EE000014601902846FFF7BFFF7CBD1CB50446A4
:101EF0000020009003460122114601902046FFF782
:101F00009FFF1CBD1CB50446002000900346012223
:101F1000114601902046FFF7A7FF1CBD00BF4FF000
:101F2000A0410A46012303FA00F1C2F8081500BFD8
:101F3000704700BF4FF0A0410A46012303FA00F1A9
:101F4000C2F8081500BF704710B561B900BF00BFE7
:101F50004FF0A0421346012404FA00F2C3F80C2506
:101F600000BF00BF0CE000BF00BF4FF0A04213460F
:101F7000012404FA00F2C3F8082500BF00BF00BF27
:101F800010BD0146D1F88004C1F8800470470246B4
:101F9000505808B1012070470020FCE708B5002226
:101FA00042504258009200BF08BDC0F80815C0F862
:101FB00010257047C0F808137047C0F80413704725
:101FC0000246D2F80403084008B1012070470020FF
:101FD000FCE7012242507047C0F81425C0F80C15E8
:101FE00070470146D1F88004C1F88004704702466A
:101FF000505808B1012070470020FCE708B50022C6
:1020000042504258009200BF08BDC0F808154FF476
:10201000A2631A507047C0F808137047C0F8041341
:102020007047014640F23C5040587047D0F80022BB
:102030008A43C0F80022704701224250704701468F
:1020400040F24C504058704740F20C53195040F247
:1020500014531A5070470146080B40B270470146AE
:10206000080B40B27047014601F06040B0F1005FDC
:1020700001D1012070470020FCE72DE9F04107461F
:102080000E46384600F038FD0446BCB14FF000085B
:102090000020FEF715FD207910B14FF0010802E095
:1020A0002660012020710020FEF70FFDB8F1000F1F
:1020B00003D011252846BDE8F08100BF0025284641
:1020C000F9E7000010B50249024801F003F810BD1D
:1020D00090130020002000402DE9F04105460E46F7
:1020E0001746287900EB400101EBC0001A4901EBCB
:1020F00080044FF0000894F82A0020B14FF008083F
:102100004046BDE8F0812A79144B53F82210286824
:10211000FFF7B3FF18B14FF011084046F1E7314621
:102120002846FEF78BFD676030692060606818B153
:10213000317F2846FEF78CFF28680421C0F800157F
:1021400000BF0020A061E06184F8290060610120E7
:1021500084F82A004046D4E790130020C0350000E0
:102160002DE9F84F054689469246287900EB400153
:1021700001EBC000424901EB800400200090606840
:1021800020B14FF401712868FFF714FFA06970B106
:10219000E06950B1606820B14FF401712868FFF721
:1021A0000CFF11263046BDE8F88F01200090009802
:1021B00038B9C4F818A0C4F80C9000206062E0613F
:1021C00003E0C4F81090C4F81CA094F8290020B9CA
:1021D000009810B9284600F0E4FC6068002846D159
:1021E0004FF4A2712868FFF7D9FE00BF00BF4FF47B
:1021F00092712868FFF7CBFE80464FF484712868FF
:10220000FFF7C5FE83464FF4A2712868FFF7BFFEB3
:102210000746BBF1000F03D117B9B8F1000FE6D0A4
:10222000B8F1000F00D107B107E02146286800F09F
:102230007DFC616AA0698842D8D800BF0020A061F7
:10224000B8F1000F02D003263046ACE717B10F26D5
:102250003046A8E794F8290020B100212868FFF74C
:10226000B8FE03E004212868FFF7B3FE04E04FF452
:1022700001712868FFF7A1FE0026304693E70000B1
:10228000901300202DE9F04104460F469046207936
:1022900000EB400101EBC0001C4901EB800520462A
:1022A00000F036F818B111263046BDE8F081C5F8C7
:1022B0001480AF600020286285F8280000264FF4C3
:1022C0008E712068FFF76AFE08212068FFF781FE03
:1022D0002946206800F0EFFD6868A0B9294620680B
:1022E00000F0CEFD08B90F260BE000BF4FF48E7151
:1022F0002068FFF74CFE0028F8D00C212068FFF77B
:1023000068FE002068613046CFE70000901300208F
:102310000146087900EB400202EBC000044A02EBE0
:102320008000406908B1012070470020FCE70000F0
:102330009013002010B50249024800F08FFF10BD35
:10234000BC130020002000402DE9F04105460E4658
:102350001746287900EBC000194901EB80044FF0C3
:10236000000894F8200020B14FF008084046BDE86E
:10237000F0812A79134B53F822102868FFF77DFE6D
:1023800018B14FF011084046F1E731462846FEF7F4
:1023900093FC676030692060606818B1317F28461F
:1023A000FEF7A0FE28680821C0F8001500BF002035
:1023B000A061E0616061012084F820004046D6E71A
:1023C000BC130020F03500002DE9F84F04460E46FE
:1023D0001746207900EBC000484901EB80053046E4
:1023E000FFF741FE20B94FF010084046BDE8F88FD6
:1023F0004FF0000A686820B14FF404712068FFF7BD
:102400000AFEA86970B1E86950B1686820B14FF45C
:1024100004712068FFF702FE4FF011084046E5E71F
:102420004FF0010ABAF1000F04D1AF61EE60002055
:10243000E86101E02E61EF614FF000084FF4887110
:102440002068FFF7DBFD4FF4A2712068FFF7D6FD8F
:102450002068C0F834654FF4A7610F5000BFBAF18F
:10246000000F04D100212068FFF7E6FD08E02021DD
:102470002068D0F800220A43C0F8002200BF00BF45
:10248000207900EBC0001D4901EB8000406868BB6B
:1024900000BF4FF488712068FFF7A9FD00904FF44A
:1024A000A2712068FFF7A3FD83464FF49271206864
:1024B000FFF79DFD8146009828B9BBF1000F02D1BE
:1024C000B9F1000FE5D00020217901EBC1010B4AE1
:1024D00002EB81018861B9F1000F01D04FF00308D0
:1024E000BBF1000F01D04FF00F0804E04FF404716E
:1024F0002068FFF793FD404678E70000BC130020FA
:102500002DE9F047044688469146207900EBC0004B
:102510002A4901EB80054046FFF7A5FD18B91026B2
:102520003046BDE8F087204600F04AF810B1112689
:102530003046F6E7C5F81490C5F8088000264FF439
:1025400090712068FFF75AFD4FF4AC712068FFF7D7
:1025500055FD20686A69A968C0F844154FF4A9635D
:102560001A5000BF08212068FFF766FD686818BB95
:1025700000BF4FF490712068FFF739FD82464FF499
:10258000AC712068FFF733FD0746BAF1000F01D1A7
:10259000002FEED00FB10F260BE00C212068FFF7C3
:1025A0004BFD00BF4FF4AC712068FFF720FD002801
:1025B000F8D00020686100BF3046B2E7BC130020AD
:1025C0000146087900EBC000044A02EB8000406934
:1025D00008B1012070470020FCE70000BC13002078
:1025E0002DE9F0410025002601277548006818B93B
:1025F000FEF7F6FBBDE8F0817248806A082802D336
:10260000FEF7EEFBF6E76E48083000686E4901EB16
:1026100080046B480C3000682188884207D1A0787C
:102620006A494978B0EB610F01D10126002767485C
:1026300040784010A07062480C30006820806448E8
:10264000007D20B16148407800F0010000B1012513
:10265000002D73D05F48006840F008005E490860B4
:102660005B480078002879D0012869D15B48806AEE
:10267000002866D0524808300068594951F82000B7
:1026800000285ED04E480830006851F820000068ED
:1026900054490860E07801282CD15EBB48490831D4
:1026A000086800214E4A52F8202011714C4951F817
:1026B000201089684A4A42F820104849896A491E10
:1026C000464A91621146896A51B1454951F8201034
:1026D00031B1434951F820100968424A116002E0C3
:1026E0000021404A11604049096841F001013E4A19
:1026F000116000BF3B480068B8B10120E070394963
:1027000009680878394909688847364800680078B8
:102710003749087033480068027832480168491D1B
:102720003348801CFDF78AFD13E00020E0702F493C
:102730000968884700202E4908700AE02AE00DE069
:1027400017E00020E07029490968884700202849DF
:1027500008701E484078264948700AE00020234946
:102760000968884719480078214908700020487096
:1027700000BF00BF05201F490870114808300068DD
:102780001D4908601A481C49283908601B481C4923
:10279000086001E0FEF724FB87B1A178084A0832FF
:1027A0001268D0B200F00EFA40B10F48006840F055
:1027B00004000D4908601420FDF7A2FF00BF19E7CF
:1027C0000014004054240020FC2600207E25002018
:1027D000001400207C00002000120040201C00207B
:1027E000DC26002048000020640000208800002033
:1027F00080240020450000202C1500400528000002
:102800008000002010B50A48006840F00400094923
:1028100008600949C87C0949096888470848094986
:10282000086009480949086004200949087010BD7A
:102830007C000020001200400014002088000020CE
:102840007E25002004150040E125000080000020C6
:102850004500002010B5194800681949086019485A
:102860000068194908601948808982381849C1F8F8
:1028700044050120C8600020C1F84001002115482E
:1028800001604FF4E050144908604814091D0860C5
:1028900000201249C1F80C010C48007818B900203A
:1028A0000F49096888470F480F4908600F481049C9
:1028B000086003200F49087010BD00007C00002054
:1028C000001200407800002040A5004000140020C5
:1028D00000A0004044A1004004F501400010004069
:1028E000880000207E2500200415004039290000C2
:1028F000800000204500002010B50C48006840F022
:1029000001000A490860FFF763F90948806A30B995
:102910000020084908701420FDF7F2FE04E014209E
:10292000FDF7EEFE00F0C2F910BD000064000020CB
:10293000201C00204500002010B54FF4E05047490E
:10294000086047480068002843D0464800680028CF
:102950003FD0012044490861400340490860434892
:10296000006840F00100414908604148C089414980
:102970000968401A401C40490860FFF729F93C48A3
:10298000007890B13D48007800280EDD3B4A52782F
:1029900051103B4A1268D0B200F014F928B1334804
:1029A000006840F00400314908603648806A18B178
:1029B0002F48007C012806D10020334908701420DC
:1029C000FDF79EFE48E01420FDF79AFE00F06EF938
:1029D00042E028490868411E264A1160B8B9012022
:1029E0002149086140031D4908602148C089401CF5
:1029F000214908601D48006840F002001B4908603A
:102A00000020214908701420FDF77AFE24E01F48B9
:102A1000006840F008001249F43108601C49096858
:102A200008781C49096888471B48154928390860F7
:102A30001A481B49086002201349087001200A49FE
:102A4000086040030549091F08600748D0F84401A1
:102A500010B101201349086010BD000008F50140C5
:102A60000C1100400014004000A000406400002051
:102A70000014002070000020740000207E2500203B
:102A80002C150040201C0020450000207C00002068
:102A900048000020880000208024002055280000E5
:102AA00080000020001000400E490F4801600F49CF
:102AB000001D01600B49091D001D01600B4910310B
:102AC000001D01600A49001D01600649F039001D22
:102AD00001600749091D001D01600649001D0160D4
:102AE000704700000011004060F5014000A0004068
:102AF00040A100400010004001460348814201D13E
:102B0000024870470020FCE700200040140000202D
:102B100000200449086248628862034908624862EA
:102B200088627047201C00205424002070B50546A0
:102B30000C46A06940B94FF484712846FFF72EFA7D
:102B400000BFD5F8180570BD4FF484712846FFF713
:102B500025FA00BFD5F81805C0B2626AE16888544A
:102B6000606A401C606200BFEDE77FB504460D4619
:102B7000164601208DF80000029501966846D4E9BA
:102B8000001290477FBD7FB504460D4616460120D2
:102B90008DF80000029501966846D4E9001290472E
:102BA0007FBD10B504464FF492712068FFF7F6F927
:102BB0004FF484712068FFF7F1F900212068FFF7D6
:102BC00008FA10BD70B504460D463448806A0828DE
:102BD00062D23348007801280ED132480078FC28B0
:102BE00001DD002070BD2F4800782C49096A2B4A6E
:102BF00052F82110087012E02948407838B90020B6
:102C00002649096A254A52F82110087007E024482D
:102C1000C07C2249096A214A52F8211008701F49D4
:102C2000096A1E4B53F821100A781946096A53F8AD
:102C30002110481D1B49891CFDF700FB1748006A3D
:102C4000164951F8200044701748006840B2096ADC
:102C5000124A52F8211088701046006A114651F845
:102C6000200005710F48407800F0010080F001005D
:102C7000096A52F82110C8701046006A401C1146BB
:102C80000862082801D3002008620448806A401CBA
:102C9000024988620120A5E70020A3E75424002010
:102CA000001400207E2500204815004010B50120AA
:102CB0005B4908605B48406A5A4951F820005A490C
:102CC00008605A48007810B101287ED12BE056499F
:102CD00009680878564909688847534800680079A8
:102CE00054490870002048704F48006802784E48E8
:102CF0000168491D4F48801CFDF7A0FA4E48006846
:102D000040F008004D49086011204D49C1F8040306
:102D10004648C0894B4908604B484C49086002202E
:102D20004B49087052E040480068C07810B13F48F5
:102D3000007D08B9012000E0002004463A48006800
:102D400000783C4908703848006800794006000E59
:102D500048700846407834490968C97809B90121A2
:102D600000E000210843334948702F48006802788A
:102D70002D480168491D2F48801CFDF75FFAACB152
:102D80002D48006840F008002C49086011202C49AB
:102D9000C1F804032548C0892A4908602A482B49FC
:102DA000086002202A4908700EE00EE02248006800
:102DB0002249086010202249C1F80403254823490C
:102DC000086001202249087000E000BF00BF1648DB
:102DD0000068407820490860134800684178012065
:102DE00088401D49091D08601C48C07C1A492439C7
:102DF00008601048091F08600120FDF743FC01200E
:102E0000FDF76CFC00200D49FC3908600C49C1F845
:102E100008010A49F039086001200949086010BD1D
:102E200074000020201C0020480000200014002016
:102E300088000020802400207C0000200012004038
:102E40000010004070000020552800008000002085
:102E500045000020F92800002C15004050000020FB
:102E6000042005490860002003490839086040F241
:102E7000022002490860704710A5004000A20040EF
:102E800070B505460C46666910E004E094F8280029
:102E900008B1002070BD4FF48E712846FFF777F817
:102EA0000028F3D02146284600F005F8206AB042F9
:102EB000EBD30120EEE770B505460C464FF48E715A
:102EC0002846FFF76BF8216AA068465C206A401C20
:102ED00020623046C5F81C0500BF70BD7FB50446B2
:102EE0000D4600208DF800000295A068019000209A
:102EF00060616846D4E9001290477FBD7FB5044603
:102F00000D4600208DF800000295A0680190002079
:102F100060616846D4E9001290477FBD30B58BB040
:102F20001822114905A8FDF789F900BF0F48019043
:102F30004FF4006002900E4803904FF4006004903C
:102F400007230C4A01A905A8FDF716FD044600BF9A
:102F500000BF254625B100BF2846FDF7A3FC00BFF2
:102F600000BF0BB030BD0000803500008E03002094
:102F70008E0B0020792F000010B50446207830B960
:102F800001200B4908700B48FDF7CCFC0FE02078BE
:102F9000022804D100BF6068FDF784FC07E02078B8
:102FA000012804D100BF6068FDF77CFC00BF10BDA4
:102FB00002000020010000207CB504460E46207867
:102FC000002847D0012802D0022856D133E0207AC9
:102FD00028B901222A492B48FEF734FB4EE06068ED
:102FE00001782948FDF78DFC054645B101208DF893
:102FF0000000019568462549096888470AE022488B
:10300000FDF7A2FF30B100208DF8000068461F498F
:10301000096888471C48FDF797FF1B498988884243
:1030200005D8012216491748FEF70CFB02E00120E3
:103030001749087022E002208DF80000E068019036
:1030400001220F490F48FEF7FDFA68460F4909684B
:10305000884713E00F491048FDF732FC28B90122D8
:103060000C490848FEF710FB06E003208DF800002D
:10307000684606490968884700E000BF00BF7CBD7C
:103080003900002020000020E01300203400002040
:103090003A00002038000020F01300207FB50446DD
:1030A0000D462E4620788DF8000060680190217A48
:1030B0008DF80810E1680391044850F82610044880
:1030C00050F82620684690477FBD00000C00002085
:1030D000080000202DE9FF4105460C464FF4007121
:1030E0002846FEF76DFF48B34FF492712846FEF76D
:1030F0004EFF18B34FF492712846FEF74FFF4FF47E
:1031000001712846FEF756FF94F8290018B90421EA
:103110002846FEF75EFF02208DF800002846FEF7E5
:1031200030FF0390A1690291E06801900020A06146
:10313000E0616846D4E90012904737E00421284650
:10314000FEF73EFF002831D04FF484712846FEF789
:103150001EFF58B321462846FFF7E8FC616AA069C4
:10316000884223D1E06970B1E668676AE069A061CE
:103170002069E0600020E061606232463946204606
:10318000FFF7F3FC12E094F8290018B9042128464F
:10319000FEF71FFF4FF401712846FEF70BFF0020DA
:1031A000A061E268616A2046FFF7DFFC4FF48E7190
:1031B0002846FEF7ECFEB8B16669206AB04207D235
:1031C00094F8280020B921462846FFF774FE0AE04B
:1031D0004FF48E712846FEF7E1FE606918B161690F
:1031E0002046FFF77BFE00BF4FF4A2712846FEF792
:1031F000CEFEA0B14FF4A2712846FEF7CFFE94F8A0
:10320000290018B100212846FEF7E3FEA06930B17D
:103210000020A061E268616A2046FFF7A6FCBDE8D5
:10322000FF8100007FB504460D462E4620788DF8BC
:10323000000060680190217A8DF80810E168039120
:10324000044850F82610044850F826206846904755
:103250007FBD00000C000020080000202DE9FF4188
:1032600006460C464FF492713046FEF7C0FEC8B1D8
:103270004FF492713046FEF7C1FE02208DF8000037
:103280003046FEF7AEFE03903046FEF7CAFE0290CF
:10329000E06801900020A061E0616846D4E9001276
:1032A00090472CE04FF488713046FEF7A0FE30B313
:1032B0004FF488713046FEF7A1FE3046FEF7B1FEAE
:1032C0000546A069A84219D1E06980B1E7682021CC
:1032D0003046FEF7ABFEE069A0612069E0600020A7
:1032E000E0613A4629462046FFF74DFC06E0002003
:1032F000A06129462046E268FFF745FC00BF4FF475
:10330000A2713046FEF773FE90B14FF4A2713046C1
:10331000FEF774FEA06958B10020A061E06130465C
:10332000FEF77FFE054629462046E268FFF72BFCA4
:103330004FF490713046FEF75AFE90B14FF4907101
:103340003046FEF75BFE0C213046FEF775FE6069E5
:1033500038B13046FEF773FE054629462046FFF792
:10336000CDFD4FF4AC713046FEF741FE70B14FF425
:10337000AC713046FEF742FE606938B13046FEF768
:103380005EFE054629462046FFF7B8FDBDE8FF81F1
:1033900010B5044604F0010020B11048FDF74CFAC6
:1033A0000F49086004F0020030B10C48001DFDF721
:1033B00043FA0B49091D086004F0040068B107488E
:1033C0000830FDF707FD06490831086003480C3056
:1033D000FDF700FD02490C31086010BD50000020CF
:1033E0001C1500401748007A174908601548007AF4
:1033F000052815D2DFE800F008030C10040000BF18
:103400003020124908600DE049201049086009E0A9
:10341000FA200E49086005E049200C49086001E0E7
:103420000020704700BF07488189084800683E3087
:10343000814204D2054800683E300249888101205B
:10344000EFE7000000140020101500407800002075
:103450001348407A98B1012809D0022815D14FF6B7
:10346000FF70104908601048091F08600FE0FF2036
:103470000C49086040F20710091F086007E00020AF
:1034800008490860091F086001E00020704700BF7C
:103490000348407A0349083908600120F6E7000034
:1034A000001400203C1500402110010010B501243B
:1034B00000F02EF8FFF796FF044000F00FF80440EC
:1034C000FFF7C6FF04400349C87C034909688847E1
:1034D000204610BD00140020880000200848007815
:1034E00028B1012807D107480749086005E00748C7
:1034F0000549086001E00020704700BF0120FBE79C
:1035000000140020553500008800002025350000FB
:103510000248807A024908607047000000140020C9
:103520000C1500400849094A11600949497C491EA7
:103530004FF0807242EA014141EA00210143034A0F
:10354000121D1160704700000001010014150040B9
:10355000500000200749084A11600849497C491E6B
:103560004FF0807242EA014141F0FC01024A121D13
:10357000116070470800030014150040500000203F
:103580000800000006000000050000000700000021
:10359000000000000000001001000000000000001A
:1035A00001020000FA0003000001022000000000F8
:1035B0006E7266785F756172745F696E697400001F
:1035C000C52000006E7266785F756172745F7478F2
:1035D000006E7266785F756172745F7278000000C9
:1035E0006E7266785F75617274655F696E6974008A
:1035F000352300006E7266785F75617274655F7462
:1036000078006E7266785F75617274655F727800BB
:10361000111213140D0E0F10FFFFFFFFFFFFFFFF2E
:10362000FFFFFFFFFFFFFFFF0000000000000000A2
:103630000000D601060100005836000000000020FE
:103640009000000044070000E836000090000020D1
:103650009036000054070000000A0000000000003F
:10366000000000000000000000000000000000005A
:1036700000000000000000000000000000200040EA
:1036800000000000002000400000000000000000DA
:10369000000000000000000000000000000000002A
:1036A0000000000000000000E7E7E7E7C2C2C2C276
:1036B000E7C2C3C4C5C6C7C80805FF0200000000B2
:1036C00000000000000000000000000000000000FA
:1036D00000000000130100000000000000000000D6
:0836E000000000000090D0037F
:0400000500000201F4
:00000001FF
